{
  "contractName": "Escrow",
  "abi": [
    {
      "inputs": [
        {
          "internalType": "address",
          "name": "_buyer",
          "type": "address"
        },
        {
          "internalType": "address",
          "name": "_seller",
          "type": "address"
        },
        {
          "internalType": "bytes32",
          "name": "_productId",
          "type": "bytes32"
        }
      ],
      "payable": true,
      "stateMutability": "payable",
      "type": "constructor"
    },
    {
      "constant": true,
      "inputs": [],
      "name": "buyerOk",
      "outputs": [
        {
          "internalType": "uint256",
          "name": "",
          "type": "uint256"
        }
      ],
      "payable": false,
      "stateMutability": "view",
      "type": "function"
    },
    {
      "constant": true,
      "inputs": [],
      "name": "sellerOk",
      "outputs": [
        {
          "internalType": "uint256",
          "name": "",
          "type": "uint256"
        }
      ],
      "payable": false,
      "stateMutability": "view",
      "type": "function"
    },
    {
      "constant": false,
      "inputs": [],
      "name": "accept",
      "outputs": [],
      "payable": false,
      "stateMutability": "nonpayable",
      "type": "function"
    },
    {
      "constant": false,
      "inputs": [],
      "name": "reject",
      "outputs": [],
      "payable": false,
      "stateMutability": "nonpayable",
      "type": "function"
    }
  ],
  "bytecode": "0x60806040524260045560405161079e38038061079e8339818101604052606081101561002a57600080fd5b810190808051906020019092919080519060200190929190805190602001909291905050506000341161005c57600080fd5b336000806101000a81548173ffffffffffffffffffffffffffffffffffffffff021916908373ffffffffffffffffffffffffffffffffffffffff16021790555082600160006101000a81548173ffffffffffffffffffffffffffffffffffffffff021916908373ffffffffffffffffffffffffffffffffffffffff16021790555081600260006101000a81548173ffffffffffffffffffffffffffffffffffffffff021916908373ffffffffffffffffffffffffffffffffffffffff16021790555080600381905550505050610667806101376000396000f3fe608060405234801561001057600080fd5b506004361061004c5760003560e01c80632852b71c146100515780634dc415de1461005b57806353496a7514610065578063c5b0e6fb14610083575b600080fd5b6100596100a1565b005b610063610434565b005b61006d610626565b6040518082815260200191505060405180910390f35b61008b61062c565b6040518082815260200191505060405180910390f35b600160009054906101000a900473ffffffffffffffffffffffffffffffffffffffff1673ffffffffffffffffffffffffffffffffffffffff163373ffffffffffffffffffffffffffffffffffffffff16148061014a5750600260009054906101000a900473ffffffffffffffffffffffffffffffffffffffff1673ffffffffffffffffffffffffffffffffffffffff163373ffffffffffffffffffffffffffffffffffffffff16145b61015357600080fd5b60008060009054906101000a900473ffffffffffffffffffffffffffffffffffffffff169050600260009054906101000a900473ffffffffffffffffffffffffffffffffffffffff1673ffffffffffffffffffffffffffffffffffffffff163373ffffffffffffffffffffffffffffffffffffffff161480156101d857506000600654145b1561029157426006819055508073ffffffffffffffffffffffffffffffffffffffff16630ed7193260035460026040518363ffffffff1660e01b81526004018083815260200182600381111561022a57fe5b60ff16815260200192505050602060405180830381600087803b15801561025057600080fd5b505af1158015610264573d6000803e3d6000fd5b505050506040513d602081101561027a57600080fd5b8101908080519060200190929190505050506103a6565b600160009054906101000a900473ffffffffffffffffffffffffffffffffffffffff1673ffffffffffffffffffffffffffffffffffffffff163373ffffffffffffffffffffffffffffffffffffffff161480156102f057506000600554145b156103a557426005819055508073ffffffffffffffffffffffffffffffffffffffff16630ed7193260035460036040518363ffffffff1660e01b81526004018083815260200182600381111561034257fe5b60ff16815260200192505050602060405180830381600087803b15801561036857600080fd5b505af115801561037c573d6000803e3d6000fd5b505050506040513d602081101561039257600080fd5b8101908080519060200190929190505050505b5b6000600554141580156103bc5750600060065414155b15610431576000600260009054906101000a900473ffffffffffffffffffffffffffffffffffffffff1690508073ffffffffffffffffffffffffffffffffffffffff166108fc479081150290604051600060405180830381858888f1935050505015801561042e573d6000803e3d6000fd5b50505b50565b600160009054906101000a900473ffffffffffffffffffffffffffffffffffffffff1673ffffffffffffffffffffffffffffffffffffffff163373ffffffffffffffffffffffffffffffffffffffff1614806104dd5750600260009054906101000a900473ffffffffffffffffffffffffffffffffffffffff1673ffffffffffffffffffffffffffffffffffffffff163373ffffffffffffffffffffffffffffffffffffffff16145b6104e657600080fd5b60008060009054906101000a900473ffffffffffffffffffffffffffffffffffffffff1690508073ffffffffffffffffffffffffffffffffffffffff16630ed7193260035460006040518363ffffffff1660e01b81526004018083815260200182600381111561055257fe5b60ff16815260200192505050602060405180830381600087803b15801561057857600080fd5b505af115801561058c573d6000803e3d6000fd5b505050506040513d60208110156105a257600080fd5b8101908080519060200190929190505050506000600160009054906101000a900473ffffffffffffffffffffffffffffffffffffffff1690508073ffffffffffffffffffffffffffffffffffffffff166108fc479081150290604051600060405180830381858888f19350505050158015610621573d6000803e3d6000fd5b505050565b60055481565b6006548156fea265627a7a723158209f1832702cb667cfff8a0012b41f32c4c74b663e2bba2adb1fab52f9e028f84b64736f6c63430005100032",
  "source": "pragma solidity 0.5.16;\n\nimport \"./Store.sol\";\n\ncontract Escrow {\n    address owner;\n    address buyer;\n    address seller;\n    bytes32 productId;\n    uint createdAt = now;\n    uint public buyerOk;\n    uint public sellerOk;\n\n    modifier onlyParticipant {\n        require(msg.sender == buyer || msg.sender == seller);\n        _;\n    }\n\n    constructor (address _buyer, address _seller, bytes32 _productId) public payable {\n        require(msg.value > 0);\n        owner = msg.sender;\n        buyer = _buyer;\n        seller = _seller;\n        productId = _productId;\n    }\n\n    function accept() public onlyParticipant {\n        Store store = Store(owner);\n\n        if (msg.sender == seller && sellerOk == 0) {\n            sellerOk = now;\n            store.updateProductStatus(productId, Store.ProductStatus.Shipping);\n        } else if (msg.sender == buyer && buyerOk == 0) {\n            buyerOk = now;\n            store.updateProductStatus(productId, Store.ProductStatus.Sold);\n        }\n\n        if (buyerOk != 0 && sellerOk != 0) {\n            address payable sellerPayable = address(uint160(seller));\n            sellerPayable.transfer(address(this).balance);\n        }\n    }\n\n    function reject() public onlyParticipant {\n        Store store = Store(owner);\n        store.updateProductStatus(productId, Store.ProductStatus.Available);\n        address payable buyerPayable = address(uint160(buyer));\n        buyerPayable.transfer(address(this).balance);\n    }\n}\n",
  "sourcePath": "D:\\GitHub\\github\\Acadamics\\FAST-NU\\Blockchain\\blockchain project final\\contracts\\Escrow.sol",
  "compiler": {
    "name": "solc",
    "version": "0.5.16+commit.9c3226ce.Emscripten.clang"
  },
  "schemaVersion": "3.4.16",
  "updatedAt": "2023-12-03T15:34:57.707Z",
  "devdoc": {
    "methods": {}
  },
  "userdoc": {
    "methods": {}
  }
}